:1000000019C033C032C031C030C074C02EC02DC042
:10001000EBC02BC02AC029C028C027C026C025C0DD
:1000200024C023C022C021C091C01FC01EC01DC05B
:100030001CC01BC011241FBECFEFCDBFDFE3DEBF4E
:100040001EE3A0E0BEE3E2E2F2E002C005900D9202
:10005000A630B107D9F72EE3A6E0BEE301C01D929A
:10006000A630B207E1F70BD0DAC0CACFE0E0F8E083
:1000700080E4868386EB92E0808791870895E0E4B0
:10008000F4E081E0818383E0858BCCE0C0932104A0
:10009000E0E0F4E086E0818380E78183E7DFE0E071
:1000A000FAE087EB86A3C7A382858160828780817F
:1000B0008E60808384E1809301028FB780688FBF58
:1000C000E0E1F8E010828BE0868381EC8383848119
:1000D0008B7F8483E4E1F8E0808188608083E0E0C6
:1000E000F4E080858670E9F7E0E1F8E085818160E1
:1000F0008583FFCF1F920F920FB60F9211248F931B
:10010000EF93FF93E0E4F4E08185818781E08783CA
:100110001092033E80E480931708E0E0FAE08581C6
:100120008860858380818160808381B18F7881B987
:10013000E4E0FEE38181880F811D8183FF91EF91CF
:100140008F910F900FBE0F901F9018951F920F92D6
:100150000FB60F9211242F938F939F93AF93BF935A
:10016000EF93FF93CF93DF9300D0CDB7DEB78091AD
:100170000404898321B180E190E00090033E02C035
:10018000880F991F0A94E2F7822B81B98091150894
:1001900084FD15C0E0E0FEE383819281891778F445
:1001A000DF010190F081E02DE80FF11D90819A832D
:1001B0009A81909318088F5F13968C9305C0E0E1A5
:1001C000F8E08481836084830F900F90DF91CF915A
:1001D000FF91EF91BF91AF919F918F912F910F90D0
:1001E0000FBE0F901F9018951F920F920FB60F928F
:1001F00011248F93EF93FF93E0E0FAE08385816011
:10020000838780818E7F808381B18F7881B9FF91D0
:10021000EF918F910F900FBE0F901F901895F8944B
:02022000FFCF0E
:06022200043E0200146717
:00000001FF
