:1000000019C02BC02AC029C028C08AC026C025C05C
:100010000EC123C022C021C020C01FC01EC01DC0F1
:100020001CC01BC01AC019C0B9C017C016C015C06B
:1000300014C013C011241FBECFEFCDBFDFE3DEBF5E
:100040001EE3A0E0BEE3E8E6F2E002C005900D92F8
:10005000A630B107D9F762D005C1D2CFE0E1F8E010
:10006000108281E082838BE0868381EC83838481AC
:100070008B7F8483A4E1B8E08C9188608C93858128
:10008000816085830895CF93DF9300D0CDB7DEB72D
:1000900089836A8389819A81880F892B80931708C5
:1000A00080E00F900F90DF91CF910895CF93DF9371
:1000B0001F92CDB7DEB7898389818093180880E0CD
:1000C0000F90DF91CF910895E0E1F8E084818360A3
:1000D000848381E00895E0E4F4E081E0818383E0BB
:1000E000858B8CE080932104E0E0F4E096E091833E
:1000F00090E79183E0E0FAE097EB96A387A38285EF
:100100008160828780818E60808384E18093010298
:100110008FB780688FBFA2DF80E00895DCDFFFCF5C
:100120001F920F920FB60F9211242F933F934F936C
:100130005F936F937F938F939F93AF93BF93EF934F
:10014000FF93E0E4F4E08185818781E0878310926A
:10015000033E60E080E297DFE0E0FAE085818860BE
:10016000858380818160808381B18F7881B9E4E06B
:10017000FEE38181880F811D8183FF91EF91BF9103
:10018000AF919F918F917F916F915F914F913F912F
:100190002F910F900FBE0F901F9018951F920F92E6
:1001A0000FB60F9211242F933F934F935F936F934A
:1001B0007F938F939F93AF93BF93CF93DF93EF93EF
:1001C000FF9321B180E190E00090033E02C0880FD0
:1001D000991F0A94E2F7822B81B98091150884FD5A
:1001E00012C0E0E0FEE383819281891760F4EF01A1
:1001F0000190F081E02DE80FF11D808157DF8B81A8
:100200008F5F8B8301C060DFFF91EF91DF91CF9112
:10021000BF91AF919F918F917F916F915F914F911E
:100220003F912F910F900FBE0F901F9018951F9226
:100230000F920FB60F9211248F93EF93FF93E0E08C
:10024000FAE083858160838780818E7F808381B19E
:100250008F7881B9FF91EF918F910F900FBE0F9022
:080260001F901895F894FFCFE0
:06026800043E02001467D1
:00000001FF
