:1000000019C033C032C07FC130C0A4C12EC02DC0C2
:100010002CC02BC02AC029C028C027C026C025C09C
:1000200024C023C022C021C093C0E0C11EC01DC097
:100030001CC01BC011241FBECFEFCDBFDFE3DEBF4E
:100040001EE3A0E0BEE3E4EDF4E002C005900D92F3
:10005000A231B107D9F72EE3A2E1BEE301C01D92A0
:10006000A135B207E1F734D133C2CACF80E0089599
:10007000E2E1FEE3148280818093170880FD02C0D4
:1000800084E0089585E00895E0E1F8E084818360EC
:10009000848380E00895E0E1F8E0848188608483CF
:1000A00085818160858380E00895E2E1FEE38481BB
:1000B000A181B281A80FB11D9C91909318088F5F08
:1000C00084839381891710F484E0089582E0089571
:1000D000E2E1FEE3848190911808A181B281A80F2A
:1000E000B11D9C938F5F84839381891710F485E001
:1000F000089582E00895C8DF0895C6DF0895C4DF3B
:100100000895CF93DF938091150884FF03C086E0A4
:100110008093173E8091150883FF03C087E080938A
:10012000173E8091150882FF03C088E08093173E38
:10013000C2E1DEE3ED81F0E0EE0FFF1FE050F24C94
:100140000190F081E02D09958D83DF91CF91089585
:100150001F920F920FB60F9211242F933F934F933C
:100160005F936F937F938F939F93AF93BF93EF931F
:10017000FF93C7DFFF91EF91BF91AF919F918F9157
:100180007F916F915F914F913F912F910F900FBE93
:100190000F901F901895E2E1FEE3818392836383C1
:1001A00014820895E0E1F8E0108281E082838BE020
:1001B000868381EC838384818B7F8483A4E1B8E090
:1001C0008C9188608C938581816085831092173E25
:1001D00008959091173E911108C0E2E1FEE3880F67
:1001E000682B608381E085838CDF08950895E8E2C1
:1001F000FEE380E4808384E1818390911B3E892F1C
:100200008470282F2295207F892F8071880F822B60
:1002100040E8949F90011124282B9074892F90E03E
:100220009595879595958795822B828326EF30E06B
:1002300043E068E17EE3CF0125D1089583E0809318
:1002400055048CE080932104E0E0F4E086E08183B3
:1002500082E0848B84E1809301028FB780688FBF36
:10026000FDD0A0DF87E680932A3E80E008951F93AB
:10027000CF93DF93C8E2DEE38A81880F811D8A83F2
:1002800080E4888314E1198326EF30E043E068E1DD
:100290007EE3CE01F7D0E8E3FEE310838A81818319
:1002A00062E0CF0178DF60E080E293DFDF91CF9101
:1002B0001F910895E8E2FEE381E4808381E1818378
:1002C00027EF30E043E068E17EE3CF01DBD0089523
:1002D000B5DF27EF30E040E168E17EE380E094E1C4
:1002E000D1D0A8E3BEE3E1E0F4E181918D93E03168
:1002F00084E1F807D1F76FE088E39EE34CDF60E02C
:1003000080E267DFFFCF1F920F920FB60F9211248A
:100310002F933F934F935F936F937F938F939F930D
:10032000AF93BF93EF93FF93E0E0F4E08185818783
:10033000C1DFFF91EF91BF91AF919F918F917F911D
:100340006F915F914F913F912F910F900FBE0F9042
:100350001F9018951F920F920FB60F9211242F9392
:100360003F934F935F936F937F938F939F93AF933D
:10037000BF93EF93FF93E0E4F4E08185818777DF1B
:10038000FF91EF91BF91AF919F918F917F916F916D
:100390005F914F913F912F910F900FBE0F901F9043
:1003A00018954B9880E008954B9A8091483E0895A7
:1003B000E8E4FEE3868190912408A381B481A80F2C
:1003C000B11D9C938F5F86839581891750F4E091CE
:1003D000493EF0914A3EE80FF11D80818093240848
:1003E0000895E2DF83E08093483E08951F920F92C4
:1003F0000FB60F9211242F933F934F935F936F93F8
:100400007F938F939F93AF93BF93EF93FF93CF937C
:10041000DF931F92CDB7DEB780912308898389814E
:1004200086FF05C0C1DF83E08093483E01C0C0DF86
:10043000109223080F90DF91CF91FF91EF91BF9120
:10044000AF919F918F917F916F915F914F913F916C
:100450002F910F900FBE0F901F901895E0E4F4E0DD
:1004600082E082838DE0818348989EDF83E08093E1
:10047000483EE0E2F8E084E4818381E0828385E223
:1004800080830895CF92DF92FF920F931F93CF93B3
:10049000DF9389013091483E333091F4F42E6B01A3
:1004A000EC017FDFE8E4FEE38083C183D283C38273
:1004B000D482F5821682078310878881809324086E
:1004C000DF91CF911F910F91FF90DF90CF90089512
:0404D000F894FFCFCE
:1004D4003600380044004B00550068007B007D0066
:0204E4007F0097
:00000001FF
