:1000000019C033C032C031C030C0DFC02EC02DC0D7
:100010002CC02BC02AC029C028C027C026C025C09C
:1000200024C023C022C021C094C017C11EC01DC05F
:100030001CC01BC011241FBECFEFCDBFDFE3DEBF4E
:100040001EE3A0E0BEE3E2E0F3E002C005900D9203
:10005000A631B107D9F72EE3A6E1BEE301C01D9298
:10006000A132B207E1F7AAD04AC1CACF80E0089511
:10007000E6E1FEE3148280818093170880FD02C0D0
:1000800084E0089585E00895E0E1F8E084818360EC
:10009000848380E00895E0E1F8E0848188608483CF
:1000A00085818160858380E00895E6E1FEE38481B7
:1000B000A181B281A80FB11D9C91909318088F5F08
:1000C00084839381891710F484E0089582E0089571
:1000D00080911808E6E1FEE39481A181B281A90F25
:1000E000B11D8C9384818F5F84839381891710F471
:1000F00085E0089582E00895C7DF0895C5DF08957B
:10010000C3DF0895CF93DF938091150884FF03C068
:1001100086E080931B3E8091150883FF03C087E033
:1001200080931B3E8091150882FF03C088E0809376
:100130001B3EC6E1DEE3ED81F0E0EE0FFF1FE05075
:10014000F24C0190F081E02D09958D83DF91CF91E4
:1001500008951F920F920FB60F9211242F933F9381
:100160004F935F936F937F938F939F93AF93BF93BF
:10017000EF93FF93C7DFFF91EF91BF91AF919F91F5
:100180008F917F916F915F914F913F912F910F9040
:100190000FBE0F901F90189583E0809355048CE05C
:1001A0008093210486E08093010484E1809301021E
:1001B0008FB780688FBF8DD080E00895EDDF63E05A
:1001C00080E094E17FD096D0FFCF1F920F920FB6C0
:1001D0000F9211242F933F934F935F936F937F93CD
:1001E0008F939F93AF93BF93EF93FF93E0E4F4E07B
:1001F0008185818763E082E19EE364D07BD0E2E188
:10020000FEE38281880F811D8283FF91EF91BF9170
:10021000AF919F918F917F916F915F914F913F919E
:100220002F910F900FBE0F901F9018954B98089527
:100230004B9A0895ECE1FEE384819381891758F489
:10024000A181B281A80FB11D8C9180932408848173
:100250008F5F84830895ECDF08951F920F920FB68D
:100260000F9211242F933F934F935F936F937F933C
:100270008F939F93AF93BF93EF93FF93CF93DF93AE
:100280001F92CDB7DEB7809123088983898186FFCD
:1002900002C0CEDF01C0CEDF109223080F90DF91A5
:1002A000CF91FF91EF91BF91AF919F918F917F91EE
:1002B0006F915F914F913F912F910F900FBE0F90D3
:1002C0001F901895ECE1FEE381839283638314828F
:1002D0000895E0E4F4E082E082838DE08183489831
:1002E000A7DFE0E2F8E084E4818381E0828385E2B5
:1002F000808308959BDF1092203E9CDF0895F89440
:02030000FFCF2D
:100302003600380044004B00550068007C007E0037
:06031200800040146700AA
:00000001FF
