:1000000019C033C032C003C230C028C22EC02DC0B8
:100010002CC02BC02AC029C028C027C026C025C09C
:1000200024C023C022C021C0D9C0EFC21EC01DC041
:100030001CC01BC011241FBECFEFCDBFDFE3DEBF4E
:100040001EE3A0E0BEE3E6E3F7E002C005900D92F8
:10005000AA30B107D9F72EE3AAE0BEE301C01D9292
:10006000A633B207E1F721D25AC3CACFE0E1F8E0E4
:1000700084818B7F84838481826084830895EAE015
:10008000FEE3848190911808A181B281A80FB11D6F
:100090009C938F5F84830895EAE0FEE38481A181CD
:1000A000B281A80FB11D9C91909318088F5F848333
:1000B000089580E00895EAE0FEE314828081809351
:1000C000170885E00895F7DF0895E0E1F8E08481FE
:1000D0008360848380E00895E0E1F8E084818860B3
:1000E000848380E00895CF93DF938091150883FF88
:1000F00003C088E080930F3E8091150882FF03C003
:1001000089E080930F3ECAE0DEE3ED81F0E0EE0F80
:10011000FF1FEE5DF8470190F081E02D09958D837A
:10012000DF91CF91089581E0089580E00895E82F50
:10013000F0E0EE0FFF1FE05FF14C0190F081E02D49
:100140000995813021F0823021F4C6DF0895BDDFAA
:100150000895B1DF08958091150884FF03C082E0FF
:10016000E6DF089580911508882324F488DF7EDF78
:1001700087E008958091150886FF03C08DDF86E033
:10018000089580E008958091150884FF03C083E0FE
:10019000CEDF0895EAE0FEE394818381981718F496
:1001A0007BDF86E0089580E0C2DF089568DFEAE043
:1001B000FEE394818381981718F458DF87E008954F
:1001C000E0E1F8E084818660848381E0B0DF089517
:1001D00084E0ADDF089585E0AADF08951F920F92B5
:1001E0000FB60F9211242F933F934F935F936F930A
:1001F0007F938F939F93AF93BF93EF93FF9373DF9F
:10020000FF91EF91BF91AF919F918F917F916F91EE
:100210005F914F913F912F910F900FBE0F901F90C4
:100220001895E0E1F8E0108281E082838BE086831C
:1002300081EC838384811482A4E1B8E08C9188608E
:100240008C93858181608583EAE0FEE383E990E019
:100250008683978380879187828793878487958712
:1002600085E990E086879787808B918B158208952A
:10027000E82FF0E0EE0FFF1FE05FF14C6083718329
:100280000895EAE0FEE380836183728343830895E7
:1002900081E080930F3E27DF089581E090910F3E2B
:1002A000911180E0089580E29EE348D18091223E42
:1002B0008370D9F08091203E90E09C01220F331F83
:1002C000220F331FD901A05EB14CF901EC5DF14C56
:1002D00060817181F901ED5DF14C808116964C9140
:1002E000880F811DCEDF80E0089581E0089583E0CE
:1002F000809355048CE080932104E0E0F4E086E0F4
:10030000818382E0848B858B84E1809301028FB7A7
:1003100080688FBFCED185DF80E008950F93CF93A3
:100320008091013E880F811D8093013EECE1FEE348
:1003300090E49083C4E1C183828343E0BF01CF0195
:10034000CED1E3E3FEE3C0838091013E818302E0EE
:100350009F0140E060E280E29EE306D19EDF8823B9
:10036000D1F08091203E90E09C01220F331F220F9C
:10037000331FD901A05EB14CF901EC5DF14C6081F5
:100380007181F901ED5DF14C808116964C91880FD9
:10039000811D77DF7DDFCF910F9108950F93ECE101
:1003A000FEE381E4808381E1818343E0BF01CF01EB
:1003B00096D101E020E03EE340E060E280E29EE38F
:1003C000D3D025E33EE341E060E280E29EE3CCD07F
:1003D00064DF8823D1F08091203E90E09C01220FC1
:1003E000331F220F331FD901A05EB14CF901EC5D20
:1003F000F14C60817181F901ED5DF14C80811696BF
:100400004C91880F811D3DDF43DF0F9108951F92AE
:100410000F920FB60F9211242F933F934F935F9338
:100420006F937F938F939F93AF93BF93EF93FF93BC
:10043000E0E0F4E081858187B1DFFF91EF91BF912A
:10044000AF919F918F917F916F915F914F913F916C
:100450002F910F900FBE0F901F9018951F920F9223
:100460000FB60F9211242F933F934F935F936F9387
:100470007F938F939F93AF93BF93EF93FF93E0E4AA
:10048000F4E0818581874ADFFF91EF91BF91AF91C1
:100490009F918F917F916F915F914F913F912F919C
:1004A0000F900FBE0F901F901895CF93DF93CDB78D
:1004B000DEB76097CDBFDEBF1ADF80E29EE336D0A5
:1004C00063E571E080E0D4DE63E571E081E0D0DED9
:1004D00040E1BE016F5F7F4F80E094E100D14FE0CB
:1004E00061E074E180E4CDDED3DE0F2EF2E2EF2E88
:1004F000FEE3FF2EF02DF70180818370359BFECF48
:100500008111FCCFCADE8823B1F301E020E03EE395
:1005100040E060E280E29EE327D025E33EE341E055
:1005200060E280E29EE320D0B3DEE5CFFC011082E2
:10053000118282818C7F8B7F82830895FC0182816E
:10054000837089F080818F5F843011F0808301C0D7
:10055000108291E021818081281301C090E0828186
:100560008C7F892B828308950F93CF93DF93DC01D7
:10057000C90111963C911197E32FF0E0ED0124E0C1
:10058000329FC00DD11D11246F772B812078622BF3
:1005900040FB67F96B833196EE0FFF1FEE0FFF1FD5
:1005A000EA0FFB1F808391830E8312968C91129722
:1005B000837090E00297DCF43F5F343021F01196B5
:1005C0003C93119703C011961C92119711969C9120
:1005D00011978C91981711F091E001C092E012965A
:1005E0008C9112978C7F892B12968C9306C0129651
:1005F0008C911297876012968C93DF91CF910F9117
:1006000008954B9A8091023E08951F920F920FB663
:100610000F9211242F933F934F935F936F937F9388
:100620008F939F93AF93BF93EF93FF93CF93DF93FA
:100630001F92CDB7DEB7809123088983898186FF19
:1006400005C0DFDF85E08093023E1DC0E2E0FEE3EF
:10065000868190912408A381B481A80FB11D9C9339
:100660008F5F86839581891750F4E091033EF09166
:10067000043EE80FF11D80818093240804C0C1DF8F
:1006800085E08093023E109223080F90DF91CF9176
:10069000FF91EF91BF91AF919F918F917F916F915A
:1006A0005F914F913F912F910F900FBE0F901F9030
:1006B0001895E0E4F4E082E082838DE0818348983D
:1006C000A0DFA2E0BEE385E08C93E0E2F8E084E402
:1006D000818381E0828385E280838C910895FC018F
:1006E0009091023E9530B1F44B98A2E0BEE31C928B
:1006F0001196ED93FC93129713966D937C93149738
:1007000015964C93159716961C9280818093240819
:1007100080E0089582E08093023E85E00895F89499
:02072000FFCF09
:1007220059005B00630065006C00AB00C300D6009B
:04073200E800EB00F0
:0A073600116705000000000000003C
:00000001FF
