:1000000019C033C032C031C030C0E6C02EC02DC0D0
:1000100023C12BC02AC029C028C027C026C025C0A4
:1000200024C023C022C021C074C01FC01EC01DC078
:100030001CC01BC011241FBECFEFCDBFDFE3DEBF4E
:100040001EE3A0E0BEE3E2E9F2E002C005900D92FB
:10005000A031B107D9F72EE3A0E1BEE301C01D92A4
:10006000A631B207E1F7B6D012C1CACF80E0089539
:10007000E0E1FEE314828081880F8093170885E019
:100080000895E0E1F8E084818360848380E008954E
:10009000E0E1FEE38481A181B281A80FB11D9C91B2
:1000A000909318088F5F84839381891710F485E0FB
:1000B000089584E00895E0E1FEE381839283638301
:1000C00014820895E0E1F8E0108281E082838BE001
:1000D000868381EC838384818B7F8483A4E1B8E071
:1000E0008C9188608C938581816085831092153E08
:1000F0000895E0E1FEE314828083662311F096E028
:1001000001C095E09093153E880F682B6093170807
:1001100008951F920F920FB60F9211242F933F93C1
:100120004F935F936F937F938F939F93AF93BF93FF
:10013000CF93DF93EF93FF9321B1C0E1DEE380E142
:1001400090E00C8002C0880F991F0A94E2F7822B7E
:1001500081B9ED81F0E0EE0FFF1FE050F24C01900D
:10016000F081E02D09958D83FF91EF91DF91CF9183
:10017000BF91AF919F918F917F916F915F914F91BF
:100180003F912F910F900FBE0F901F901895E0E4B4
:10019000F4E081E0818383E0858B8CE0809321040F
:1001A000E0E0F4E096E0918390E79183E0E0FAE00C
:1001B00097EB96A387A382858160828780818E607A
:1001C000808384E1809301028FB780688FBF7ADFDC
:1001D00080E00895DCDFFFCF1F920F920FB60F92E1
:1001E00011242F933F934F935F936F937F938F933C
:1001F0009F93AF93BF93EF93FF93E0E4F4E0818587
:10020000818781E0878362E08EE09EE354DF60E0D7
:1002100080E26FDFEEE0FEE38181880F811D818344
:10022000E0E0FAE085818860858380818160808359
:1002300081B18F7881B9FF91EF91BF91AF919F917B
:100240008F917F916F915F914F913F912F910F907F
:100250000FBE0F901F9018951F920F920FB60F921E
:1002600011248F93EF93FF93E0E0FAE083858160A0
:10027000838780818E7F808381B18F7881B9FF9160
:10028000EF918F910F900FBE0F901F901895F894DB
:02029000FFCF9E
:100292003600360036003800410048003600146748
:00000001FF
