:1000000019C033C032C0EFC130C014C22EC02DC0E1
:100010002CC02BC02AC029C028C027C026C025C09C
:1000200024C023C022C021C0BDC0D5C21EC01DC077
:100030001CC01BC011241FBECFEFCDBFDFE3DEBF4E
:100040001EE3A0E0BEE3E0E0F7E002C005900D9201
:10005000AA31B107D9F72EE3AAE1BEE301C01D9290
:10006000AD33B207E1F7A6D140C3CACF80E008950F
:10007000EAE1FEE3148281E08683808180931708A1
:1000800080FD02C084E0089585E00895E0E1F8E095
:1000900084818760848380E00895E0E1F8E08481D2
:1000A0008860848385818160858380E00895CF9313
:1000B000DF93EAE1FEE384819381891758F4E091AC
:1000C0001B3EF0911C3EE80FF11D808180931808C3
:1000D00084E008C0CAE1DEE3EF81F8850995E9858F
:1000E000FA850995EAE1FEE394819F5F9483DF91AD
:1000F000CF910895CF93DF93EAE1FEE316828481E6
:1001000090911808A181B281A80FB11D9C938F5FB7
:1001100084839381891750F4E0E1F8E084818B7F38
:10012000848384818260848385E008C0CAE1DEE341
:10013000EF81F8850995E985FA850995DF91CF91D9
:100140000895A4DF0895A2DF0895A7DF0895CF934F
:10015000DF938091203E882339F08091150884FF39
:1001600003C086E080931F3E8091150883FF03C083
:1001700087E080931F3E8091150882FF03C088E0CE
:1001800080931F3ECAE1DEE3ED81F0E0EE0FFF1F3A
:10019000E251F9470190F081E02D09958D83DF91BF
:1001A000CF9108951F920F920FB60F9211242F93A3
:1001B0003F934F935F936F937F938F939F93AF93EF
:1001C000BF93EF93FF93C3DFFF91EF91BF91AF9187
:1001D0009F918F917F916F915F914F913F912F915F
:1001E0000F900FBE0F901F901895E0E1F8E010827D
:1001F00081E082838BE0868381EC83838481148217
:10020000A4E1B8E08C9188608C93858181608583BE
:1002100010921F3E089586E490E08093233E9093D1
:10022000243E089588E390E08093233E9093243EFB
:100230000895EAE1FEE38083618372834383089536
:10024000EAE1FEE38783908781E08583168286E476
:1002500090E0818792877BDF089581E090911F3E37
:10026000911180E008950F931F93CF93DF9315D1E1
:10027000813051F48091293E8093013E22E040E09C
:100280005EE360E080E282D163D12CD1882371F0FB
:100290001ED1D82F10D18C01F4D0C82FFED0CC0F96
:1002A0004D2FB8018C2BC5DFBDDF01C0B4DFDF915E
:1002B000CF911F910F91089583E0809355048CE0B6
:1002C00080932104E0E0F4E086E0818382E0848B87
:1002D000858B84E1809301028FB780688FBFCFD177
:1002E00084DF80E008950F931F93CF93DF93809175
:1002F000113E880F811D8093113EE5E2FEE390E4FC
:10030000908394E19183828343E0BF01CF01CDD1FB
:100310008091113E8093013E22E040E05EE360E088
:1003200080E234D19ADF882379F0D1D0D82FC3D09E
:100330008C01A7D0C82FB1D0CC0F4D2FB8018C2B7A
:1003400078DF83E391E07CDFDF91CF911F910F9104
:1003500008950F931F93CF93DF93E5E2FEE381E4CB
:10036000808381E1818343E0BF01CF019ED121E001
:1003700040E15EE360E080E209D121E049E25EE332
:1003800061E080E203D169DF882379F0A0D0D82F23
:1003900092D08C0176D0C82F80D0CC0F4D2FB801D1
:1003A0008C2B47DF83E391E04BDFDF91CF911F91EF
:1003B0000F910895CF93DF93CDB7DEB76097CDBF90
:1003C000DEBF7ADF93D040E1BE016F5F7F4F80E0F8
:1003D00094E16BD14FE061E074E180E42ADF83E3D4
:1003E00091E02EDFFFCF1F920F920FB60F921124D4
:1003F0002F933F934F935F936F937F938F939F932D
:10040000AF93BF93EF93FF93E0E0F4E081858187A2
:10041000A0DFFF91EF91BF91AF919F918F917F915D
:100420006F915F914F913F912F910F900FBE0F9061
:100430001F9018951F920F920FB60F9211242F93B1
:100440003F934F935F936F937F938F939F93AF935C
:10045000BF93EF93FF93E0E4F4E08185818743DF6E
:10046000FF91EF91BF91AF919F918F917F916F918C
:100470005F914F913F912F910F900FBE0F901F9062
:100480001895E0912A3EF0E0EE0FFF1FEE0FFF1FE0
:10049000E35DF14C80818F770895E0912A3EF0E092
:1004A000EE0FFF1FEE0FFF1FE35DF14C808187FB16
:1004B000882780F90895E0912A3EF0E0EE0FFF1FB3
:1004C000EE0FFF1FE25DF14C808191810895E09174
:1004D0002A3EF0E0EE0FFF1FEE0FFF1FE65DF14C2E
:1004E0008681089580912C3E83700895EAE2FEE3B0
:1004F00010821182ECE2FEE380818C7F8B7F80830F
:10050000089580912C3E837090E00297DCF48091F6
:100510002B3E8F5F853018F480932B3E03C084E020
:1005200080932B3EEAE2FEE391818081981711F0DF
:1005300091E001C092E0ECE2FEE380818C7F892BA8
:1005400080830895ECE2FEE38081876080830895D4
:1005500080912C3E8370C9F080912A3E8F5F853058
:1005600018F480932A3E03C084E080932A3EEAE296
:10057000FEE391E021818081281301C090E0ECE24C
:10058000FEE380818C7F892B80830895CF93DF9356
:10059000E0912B3EF0E0DF01AA0FBB1FAA0FBB1FAB
:1005A000ED01C35DD14C8F7798819078892B60FBEA
:1005B00087F98883FD01E25DF14C40835183A65D9C
:1005C000B14C16962C939DDFDF91CF9108954B9AF5
:1005D0008091123E08951F920F920FB60F92112430
:1005E0002F933F934F935F936F937F938F939F933B
:1005F000AF93BF93EF93FF93CF93DF931F92CDB74A
:10060000DEB7809123088983898186FF05C0DFDFFB
:1006100085E08093123E1DC0E2E1FEE38681909169
:100620002408A381B481A80FB11D9C938F5F86839A
:100630009581891750F4E091133EF091143EE80F34
:10064000F11D80818093240804C0C1DF85E0809380
:10065000123E109223080F90DF91CF91FF91EF91FE
:10066000BF91AF919F918F917F916F915F914F91CA
:100670003F912F910F900FBE0F901F901895E0E4BF
:10068000F4E082E082838DE081834898A0DFA2E1DC
:10069000BEE385E08C93E0E2F8E084E4818381E0CE
:1006A000828385E280838C910895FC019091123EB3
:1006B0009530B1F44B98A2E1BEE31C921196ED93F4
:1006C000FC93129713966D937C93149715964C9305
:1006D000159716961C9280818093240880E00895D7
:0E06E00082E08093123E85E00895F894FFCFEB
:1006EE003600380046004D0057007A00A100A300E6
:0206FE00A50055
:1007000014000000000000000000000000000000D5
:0A0710001167050000000000000062
:00000001FF
