:1000000019C033C032C066C130C08BC12EC02DC0F4
:100010002CC02BC02AC029C028C027C026C025C09C
:1000200024C023C022C021C0A3C0A6C11EC01DC0C1
:100030001CC01BC011241FBECFEFCDBFDFE3DEBF4E
:100040001EE3A0E0BEE3E2EAF4E002C005900D92F8
:10005000A830B107D9F72EE3A8E0BEE301C01D9296
:10006000A432B207E1F720D111C2CACF80E00895CF
:10007000E8E0FEE3148280818093170880FD02C0CF
:1000800084E0089585E00895E0E1F8E084818360EC
:10009000848380E00895E0E1F8E0848188608483CF
:1000A00085818160858380E00895E8E0FEE38481B6
:1000B000A181B281A80FB11D9C91909318088F5F08
:1000C00084839381891710F484E0089582E0089571
:1000D000E8E0FEE3848190911808A181B281A80F25
:1000E000B11D9C939381891750F4E0E1F8E084817D
:1000F0008B7F848384818260848385E006C0E0E115
:10010000F8E0848184608483BFDFE8E0FEE39481CB
:100110009F5F94830895B8DF0895B6DF0895BBDF2D
:100120000895CF93DF938091150884FF03C082E088
:1001300080930D3E8091150883FF03C082E0809379
:100140000D3E8091150882FF03C083E080930D3E31
:10015000C8E0DEE3ED81F0E0EE0FFF1FE057FB4764
:100160000190F081E02D09958D83DF91CF91089565
:100170001F920F920FB60F9211242F933F934F931C
:100180005F936F937F938F939F93AF93BF93EF93FF
:10019000FF93C7DFFF91EF91BF91AF919F918F9137
:1001A0007F916F915F914F913F912F910F900FBE73
:1001B0000F901F901895E0E1F8E0108281E08283B3
:1001C0008BE0868381EC838384811482A4E1B8E090
:1001D0008C9188608C9385818160858310920D3E1F
:1001E000089590910D3E91110BC0E8E0FEE3880F59
:1001F000682B608341835283238381E0858391DF71
:10020000089583E0809355048CE080932104E0E01E
:10021000F4E086E0818382E0848B858B84E18093A7
:1002200001028FB780688FBFFBD0C5DF80E00895E3
:10023000CF938091003E880F811D8093003EE0E1C6
:10024000FEE390E49083C4E1C183828343E0BF0175
:10025000CF01FCD0E4E1FEE3C0838091003E8183C6
:1002600022E0AF0160E080E2BCDFCF910895E0E1E1
:10027000FEE381E4808381E1818380910F3E8F5F83
:1002800080930F3E43E0BF01CF01E0D0811105C054
:1002900080910E3E8F5F80930E3E20E144E15EE34D
:1002A00061E080E29EDF0895CF93DF93CDB7DEB7A4
:1002B0006097CDBFDEBFA5DF40E1BE016F5F7F4F1E
:1002C00080E094E1C3D02FE041E054E160E080E2BF
:1002D00088DFFFCF1F920F920FB60F9211242F933A
:1002E0003F934F935F936F937F938F939F93AF93BE
:1002F000BF93EF93FF93E0E0F4E081858187B7DF60
:10030000FF91EF91BF91AF919F918F917F916F91ED
:100310005F914F913F912F910F900FBE0F901F90C3
:1003200018951F920F920FB60F9211242F933F939F
:100330004F935F936F937F938F939F93AF93BF93ED
:10034000EF93FF93E0E4F4E08185818771DFFF9113
:10035000EF91BF91AF919F918F917F916F915F913D
:100360004F913F912F910F900FBE0F901F901895B6
:100370004B9A8091013E08951F920F920FB60F92F3
:1003800011242F933F934F935F936F937F938F939A
:100390009F93AF93BF93EF93FF93CF93DF931F92FE
:1003A000CDB7DEB7809123088983898186FF05C098
:1003B000DFDF85E08093013E1DC0E1E0FEE3868142
:1003C00090912408A381B481A80FB11D9C938F5FE5
:1003D00086839581891750F4E091023EF091033EA7
:1003E000E80FF11D80818093240804C0C1DF85E0FF
:1003F0008093013E109223080F90DF91CF91FF91DF
:10040000EF91BF91AF919F918F917F916F915F918C
:100410004F913F912F910F900FBE0F901F90189505
:10042000E0E4F4E082E082838DE081834898A0DFFD
:10043000A1E0BEE385E08C93E0E2F8E084E4818310
:1004400081E0828385E280838C910895FC01909104
:10045000013E9530B1F44B98A1E0BEE31C92119699
:10046000ED93FC93129713966D937C9314971596C6
:100470004C93159716961C9280818093240880E0F7
:10048000089582E08093013E85E00895F894FFCFBF
:100490003600380044004B00550068008B008D008A
:0204A0008F00CB
:0804A2006705000000000000E6
:00000001FF
