S01100004932432054657374732E7372656322
S113000019C033C032C031C030C00FC12EC02DC0A2
S11300102CC02BC02AC029C028C027C026C025C098
S113002024C023C022C021C094C01FC01EC01DC054
S11300301CC01BC011241FBECFEFCDBFDFE3DEBF4A
S11300401EE3A0E0BEE3E8E9F2E002C005900D92F1
S1130050A431B107D9F72EE3A4E1BEE301C01D9298
S1130060AA31B207E1F7D8D015C1CACF80E008950C
S1130070E4E1FEE3148280818093170880FD02C0CE
S113008084E0089585E00895E0E1F8E084818360E8
S1130090848380E00895E0E1F8E0848188608483CB
S11300A085818160858380E00895E4E1FEE38481B5
S11300B0A181B281A80FB11D9C91909318088F5F04
S11300C084839381891710F484E0089582E008956D
S11300D080911808E4E1FEE39481A181B281A90F23
S11300E0B11D8C9384818F5F84839381891710F46D
S11300F085E0089582E00895C7DF0895C5DF089577
S1130100C3DF0895CF93DF938091150884FF03C064
S113011086E08093193E8091150883FF03C087E031
S11301208093193E8091150882FF03C088E0809374
S1130130193EC4E1DEE3ED81F0E0EE0FFF1FE05075
S1130140F24C0190F081E02D09958D83DF91CF91E0
S113015008951F920F920FB60F9211242F933F937D
S11301604F935F936F937F938F939F93AF93BF93BB
S1130170EF93FF93C7DFFF91EF91BF91AF919F91F1
S11301808F917F916F915F914F913F912F910F903C
S11301900FBE0F901F901895E4E1FEE381839283D4
S11301A0638314820895E0E1F8E0108281E08283A1
S11301B08BE0868381EC838384818B7F8483A4E1B9
S11301C0B8E08C9188608C938581816085831092DE
S11301D0193E08959091193E911108C0E4E1FEE39F
S11301E0880F682B608381E085838CDF0895E0E4C9
S11301F0F4E081E0818383E0858B8CE080932104AB
S113020086E08093010484E1809301028FB78068C3
S11302108FBFC9DF80E00895EADF62E080E094E107
S1130220BBDF60E080E2D6DFFFCF1F920F920FB6F4
S11302300F9211242F933F934F935F936F937F9368
S11302408F939F93AF93BF93EF93FF93E0E4F4E016
S11302508185818781E0878362E082E19EE39CDF80
S113026060E080E2B7DFE2E1FEE38181880F811D77
S11302708183FF91EF91BF91AF919F918F917F9176
S11302806F915F914F913F912F910F900FBE0F90FF
S10B02901F901895F894FFCFAC
S11302983600380044004B00550068007C007E009E
S10702A88000146753
S9030000FC
