:1000000019C033C032C072C230C097C22EC02DC0DA
:100010002CC02BC02AC029C028C027C026C025C09C
:1000200024C023C022C021C0BDC0FAC21EC01DC052
:100030001CC01BC011241FBECFEFCDBFDFE3DEBF4E
:100040001EE3A0E0BEE3EAE4F7E002C005900D92F3
:10005000AA31B107D9F72EE3AAE1BEE301C01D9290
:10006000AB33B207E1F726D265C3CACF80E008956B
:10007000EAE1FEE3148281E08683808180931708A1
:1000800080FD02C084E0089585E00895E0E1F8E095
:1000900084818760848380E00895E0E1F8E08481D2
:1000A0008860848385818160858380E00895CF9313
:1000B000DF93EAE1FEE384819381891758F4E091AC
:1000C0001B3EF0911C3EE80FF11D808180931808C3
:1000D00084E008C0CAE1DEE3EF81F8850995E9858F
:1000E000FA850995EAE1FEE394819F5F9483DF91AD
:1000F000CF910895CF93DF93EAE1FEE316828481E6
:1001000090911808A181B281A80FB11D9C938F5FB7
:1001100084839381891750F4E0E1F8E084818B7F38
:10012000848384818260848385E008C0CAE1DEE341
:10013000EF81F8850995E985FA850995DF91CF91D9
:100140000895A4DF0895A2DF0895A7DF0895CF934F
:10015000DF938091203E882339F08091150884FF39
:1001600003C086E080931F3E8091150883FF03C083
:1001700087E080931F3E8091150882FF03C088E0CE
:1001800080931F3ECAE1DEE3ED81F0E0EE0FFF1F3A
:10019000E85CF8470190F081E02D09958D83DF91AF
:1001A000CF9108951F920F920FB60F9211242F93A3
:1001B0003F934F935F936F937F938F939F93AF93EF
:1001C000BF93EF93FF93C3DFFF91EF91BF91AF9187
:1001D0009F918F917F916F915F914F913F912F915F
:1001E0000F900FBE0F901F901895E0E1F8E010827D
:1001F00081E082838BE0868381EC83838481148217
:10020000A4E1B8E08C9188608C93858181608583BE
:1002100010921F3E089586E490E08093233E9093D1
:10022000243E089588E390E08093233E9093243EFB
:100230000895EAE1FEE38083618372834383089536
:10024000EAE1FEE38783908781E08583168286E476
:1002500090E0818792877BDF089581E090911F3E37
:10026000911180E00895EF92FF920F931F93F70191
:100270009081969596959370D80134E0939FA00D48
:10028000B11D11248F779C919078892B8C9380815C
:10029000869586958370D80194E0899FA00DB11D45
:1002A00011248C9160FB87F98C93808186958695CB
:1002B0008370D80134E0839FA00DB11D11241196E5
:1002C0004D935C9312978081869586958370D801B3
:1002D00094E0899FA00DB11D112413962C93C701A2
:1002E00059D11F910F91FF90EF900895EF92FF92D7
:1002F0000F931F93E0913A3EE370F0E0EE0FFF1F83
:10030000EE0FFF1FE65DF14C8081882394F480910D
:10031000293E8093013E0F2EFAE3EF2EFEE3FF2EDF
:10032000F02D0AE21EE322E040E05EE360E080E2BE
:100330009ADF8AE39EE355D180913A3E807399F02B
:10034000E0913A3EE370F0E0EE0FFF1FEE0FFF1F6B
:10035000E65DF14C6181728180814381880F811D4E
:1003600068DF60DF01C057DF1F910F91FF90EF90B2
:10037000089583E0809355048CE080932104E0E0AD
:10038000F4E086E0818382E0848B858B84E1809336
:1003900001028FB780688FBF97D127DF80E0089573
:1003A000E0E0F8E080E4868387EE90E08087918744
:1003B0000895EF92FF920F931F938091113E880F43
:1003C000811D8093113EE5E2FEE390E4908394E189
:1003D0009183828343E0BF01CF018CD18091113E94
:1003E0008093013E0F2EFAE3EF2EFEE3FF2EF02D59
:1003F0000AE21EE322E040E05EE360E080E233DFF9
:100400002CDF8823A1F0E0913A3EE370F0E0EE0F9C
:10041000FF1FEE0FFF1FE65DF14C6181728180814D
:100420004381880F811D05DF86E791E009DF1F9179
:100430000F91FF90EF900895EF92FF920F931F930B
:10044000E5E2FEE381E4808381E1818343E0BF0153
:10045000CF0150D10F2EFAE3EF2EFEE3FF2EF02D49
:100460000AE21EE321E040E15EE360E080E2FBDEC1
:1004700021E049E25EE361E080E2F5DEEEDE882322
:10048000A1F0E0913A3EE370F0E0EE0FFF1FEE0FB7
:10049000FF1FE65DF14C6181728180814381880F8D
:1004A000811DC7DE86E791E0CBDE1F910F91FF90A3
:1004B000EF900895CF93DF93CDB7DEB76097CDBFB0
:1004C000DEBF57DF6DDF8AE39EE35ED040E1BE0111
:1004D0006F5F7F4F80E094E10DD14FE061E074E108
:1004E00080E4A7DE86E791E0ABDEFFCF1F920F929C
:1004F0000FB60F9211242F933F934F935F936F93F7
:100500007F938F939F93AF93BF93EF93FF93E0E01D
:10051000F4E08185818790DFFF91EF91BF91AF91EA
:100520009F918F917F916F915F914F913F912F910B
:100530000F900FBE0F901F9018951F920F920FB63D
:100540000F9211242F933F934F935F936F937F9359
:100550008F939F93AF93BF93EF93FF93E0E4F4E007
:100560008185818726DFFF91EF91BF91AF919F91A8
:100570008F917F916F915F914F913F912F910F904C
:100580000FBE0F901F901895FC019081907C9F7B6F
:1005900090830895FC01208122952F70237030E014
:1005A00022303105D4F48081282F269526952F5F9F
:1005B0002370922F990F990F837F892B80838370EB
:1005C000281711F081E001C082E0982F9295907F6A
:1005D00080818F7C892B80830895808180678083D0
:1005E0000895FC0180818073B1F0908181E0890FD2
:1005F00083709C7F982B908396959695937021E0BD
:10060000981301C020E02370922F9295907F208153
:100610002F7C292B208308954B9A8091123E0895B8
:100620001F920F920FB60F9211242F933F934F9367
:100630005F936F937F938F939F93AF93BF93EF934A
:10064000FF93CF93DF931F92CDB7DEB7809123083E
:100650008983898186FF05C0DFDF85E08093123EB4
:100660001DC0E2E1FEE3868190912408A381B4815C
:10067000A80FB11D9C938F5F86839581891750F4D5
:10068000E091133EF091143EE80FF11D80818093BC
:10069000240804C0C1DF85E08093123E1092230835
:1006A0000F90DF91CF91FF91EF91BF91AF919F910B
:1006B0008F917F916F915F914F913F912F910F900B
:1006C0000FBE0F901F901895E0E4F4E082E0828363
:1006D0008DE081834898A0DFA2E1BEE385E08C93A2
:1006E000E0E2F8E084E4818381E0828385E2808334
:1006F0008C910895FC019091123E9530B1F44B9885
:10070000A2E1BEE31C921196ED93FC93129713960F
:100710006D937C93149715964C93159716961C928F
:1007200080818093240880E0089582E08093123EC7
:0807300085E00895F894FFCF65
:100738003600380046004D0057007A00A100A3009B
:02074800A5000A
:10074A00140000000000000000000000000000008B
:0A075A001167050000000000000018
:00000001FF
